:020000040800F2
:10000000D806002061020008992500084524000850
:1000100095250008F1130008E527000800000000FE
:100020000000000000000000000000005126000851
:10003000F51300080000000011260008A92600089A
:100040007B0200087B0200087B0200087B0200089C
:100050007B0200087B0200087B0200087B0200088C
:100060007B0200087B0200087B0200087B0200087C
:100070007B0200087B0200087B0200087B0200086C
:100080007B0200087B0200087B0200087B0200085C
:100090007B0200087B0200087B0200087B0200084C
:1000A0007B0200087B0200087B0200087B0200083C
:1000B0007B0200087B0200087B0200087B0200082C
:1000C0007B0200087B0200087B0200087B0200081C
:1000D0007B0200087B0200087B0200087B0200080C
:1000E0007B0200087B0200087B02000800F002F897
:1000F00000F0A6F814A696E8000CB244B344DA4522
:1001000001D100F09DF8BAE80F000FA696E8300084
:10011000A5EB040504EB0607AAEB0704A7F101070A
:100120004FEA15154FEA3414A4F10104AC4201D38F
:1001300000F086F813F0010F18BFFB1A43F001031B
:1001400000F001F8DBE718475C3400007C34000065
:10015000103A24BF78C878C1FAD8520724BF30C8F3
:1001600030C144BF04680C60704700007047000055
:100170000023002400250026103A28BF78C1FBD8B0
:10018000520728BF30C148BF0B6070476E2900F08E
:10019000A781702900F0E982662903F0658165294D
:1001A00003F06281672903F05F81612903F05E81BA
:1001B00003681B0A28BF41F08001692900F05481BF
:1001C000642900F05181752900F04E816F2900F0FB
:1001D0007782782900F0B582E92900F01182E429BC
:1001E00000F00E82F52900F00B82EF2900F07482F6
:1001F000F82900F0B4820368DB0928BF41F08001D0
:10020000632900F0B587732900F0BA87E32900F06D
:10021000C587F32900F0CA87002070471FB501F099
:100220001BF804000020002103F008F9401C606066
:100230000020002103F0ECF8E0601FBD10B510BDF8
:1002400000F0DCFF1146FFF7E9FF02F0D3FC01F0FC
:10025000B9F803B4FFF7F2FF03BC01F0C1F80000E6
:100260000948804709480047FEE7FEE7FEE7FEE74A
:10027000FEE7FEE7FEE7FEE7FEE7FEE70448054986
:10028000054A064B7047000025270008ED000008CE
:10029000D8000020D8060020D8020020D802002074
:1002A0000FB41CB5084B06AA7B446946009005981C
:1002B00000F02FF904460020694600F03DF9204681
:1002C0001CBC5DF814FB00008D0200004FF0000222
:1002D00000B5134694469646203922BFA0E80C503C
:1002E000A0E80C50B1F12001BFF4F7AF090728BF17
:1002F000A0E80C5048BF0CC05DF804EB890028BF93
:1003000040F8042B08BF704748BF20F8022B11F0BB
:10031000804F18BF00F8012B704700004FF0013CE0
:1003200050F8042B51F8043B9A4221D1A2EB0C0364
:10033000934313EACC1317D150F8042B51F8043B24
:100340009A4215D1A2EB0C03934313EACC130BD1C1
:1003500050F8042B51F8043B9A4209D1A2EB0C034C
:10036000934313EACC13DBD04FF00000704700BF7B
:10037000D01A01BAB1FA81F101F0180122FA01F0A4
:10038000CB40DBB2C0B2C01AC1F120012CFA01F39C
:10039000D11A914311EAC311E6D1704770477047F3
:1003A000704770B5044685690068C10601D53026DE
:1003B00000E02026C00707D070BDD4E901213046F7
:1003C0009047206A401C20626D1EF6D570BD70B546
:1003D000044685690078C00707D170BDD4E90121C2
:1003E00020209047206A401C20626D1EF6D570BD0B
:1003F00009684A0501D540B27047C905FCD500B26D
:10040000704709684A0501D5C0B27047C905FCD5D7
:1004100080B2704770B50C460546012A05D0287891
:10042000800600D5EA69002302E0012305E05B1C99
:10043000934202D2E05C0028F9D1A869E618C01AFC
:10044000A861286A184428622846FFF7AAFF04E03A
:10045000D5E9012114F8010B9047B442F8D328469E
:10046000FFF7B5FF70BD00002DE9F04106460024FE
:1004700010687529314616A510D0FFF7B9FF00287E
:1004800002DA404213A507E031688A0701D512A5B8
:1004900002E0490704D511A5012401E0FFF7B1FFEF
:1004A00000210A2206F1240709E0B0FBF2FCB0FBB0
:1004B000F2F302FB1C00303078541846491C002827
:1004C000F3D123462A463046BDE8F04100F061BA38
:1004D000000000002D0000002B00000020000000A4
:1004E00011680268006A530501D508700AE0D30557
:1004F00001D5088006E0130603D5C217C1E9000242
:1005000000E008600120704701694A1C0261087818
:10051000704700B58FB0CDE9013100210591054943
:100520007944CDE903101146684600F029F90FB06F
:1005300000BD0000E5FFFFFF0A6802F8010B0A603A
:10054000704700002DE9FF5F15468A460446DFF834
:10055000AC80F8440027D8E900103E46CDE90010F1
:1005600010E03AF816106A4602A800F023FE411C7B
:1005700007D02178890603D5E269391891420DD850
:100580000744761C2078800602D5E069B84205DD74
:10059000AE42E6DB3AF816000028E2D1A069C01BA3
:1005A000A0612046FFF7FDFED8E90010CDE900105C
:1005B000002017E03AF818106A4602A800F0FAFD89
:1005C000B0F1FF3F81460BD000250DF1080B05E08F
:1005D000D4E901211BF8050090476D1C4D45F7D368
:1005E00008F10100B0428046E4DB206A3844206212
:1005F0002046FFF7ECFEBDE8FF9F00001A2F000029
:100600002DE9F0418046D21D22F007020025D2E9F3
:100610000002F52915A614D0011E72F1000106DAB8
:100620000023D0EB030063EB020211A608E0D8F828
:1006300000108B0701D50FA602E0490701D50EA6D1
:1006400001251146002408F1240704E000F05CF9BC
:1006500030323A55641C50EA0102F7D12B4632463B
:1006600021464046BDE8F04100F093B9000000008B
:100670002D0000002B0000002000000030B40021FD
:1006800000F1240408E002F00705D208303542EA00
:100690004372DB086554491C52EA0305F3D1046830
:1006A000002310A2250708D504F020040C4304D031
:1006B000C46901230CA2641EC46130BC00F069B996
:1006C00010B5044621461068FFF79BFE02462046FF
:1006D000BDE810400023D1E7D21D22F00701D1E987
:1006E0000023CBE70000000030000000F0B40D460E
:1006F0000188090502D5214C7C4402E01F4C7C4452
:100700000E34002100F1240608E002F00F07120960
:10071000E75D42EA03721B097754491C52EA03075A
:10072000F3D102780023120704D5702D06D009B149
:10073000022311342246F0BC00F02BB901231034FF
:10074000F8E770B504460D4621461068FFF759FEDC
:10075000024629462046BDE870400023C6E7D21D68
:1007600022F00703D3E90023C0E70368126843F0CF
:10077000200303600823C3610023B7E77C2D00003A
:100780002DE9F05F894604464FF0000ADFF874B1A6
:10079000FB44C0F820A02046E1688847002874D0B8
:1007A000252806D0D4E901219047206A401C206208
:1007B000F1E700265F462046E16888472028054685
:1007C00007DB312D05D2781910F8200C08B106434B
:1007D000F1E7B00701D526F00406C4F81CA00027F5
:1007E000C4F818A02A2D09D0284602F009FE38B313
:1007F00004EB8708303DC8F8185019E059F8041B7D
:10080000204604EB87029161E1688847012F054685
:1008100018D1E069002820DA26F020061DE0D8F87B
:10082000180000EB800005EB40003038C8F81800D5
:100830002046E1688847054602F0E2FD0028EED137
:10084000012F0AD02E2D08D12046E16888477F1C51
:100850000546022F46F02006C4DBA069002803DA13
:10086000404246F00106A061F00701D026F01006D4
:100870006C2D0BD0682D09D04C2D39D06A2D35D078
:10088000742D35D07A2D33D016E038E0E1682F464C
:1008900020468847B842054609D16C2F26D04FF430
:1008A0008060E168064320468847054604E06C2FD7
:1008B0001AD04FF4807006430DB3A5F141001928FA
:1008C00002D8203546F400664A462946204626606E
:1008D0004E46FFF75BFC80B101280BD0F61D26F0D9
:1008E000070000F1080956E74020E4E78020D8E738
:1008F0000020D6E706F104094DE7284652E7206AB2
:10090000BDE8F09F0C2D000030B5B0F10A0271F186
:1009100000034FEA900E4EEA817EB0EB0E0061EBD1
:1009200091014FEA101E4EEA017E10EB0E0041EBE2
:1009300011114FEA102E4EEA016E10EB0E0041EB42
:1009400011214FEA104E4EEA014E10EB0E0041EB22
:100950001141401841F100014FEAD00040EA4170D6
:100960004FEAD1014FEA810444EA907410EB80050C
:1009700044EB01046D1944EB0404521BA3414FF0F6
:10098000000348BF0A3200D530BD401C41F10001D0
:1009900030BD2DE9F0470D4699469246044600F1D8
:1009A00024080168880604D5E06921F0100121605F
:1009B00000E00120A84201DD471B00E00027A169FB
:1009C0007A1902EB0900081AA0612078C00602D447
:1009D0002046FFF7E6FC002608E0D4E901211AF8DA
:1009E00006009047206A401C761C20624E45F4DBCE
:1009F0002078C0060AD52046FFF7D3FC06E0D4E9EC
:100A0000012130209047206A401C2062381EA7F147
:100A10000107F4DC07E0D4E9012118F8050090474C
:100A2000206A401C2062281EA5F10105F3DC204647
:100A3000FFF7CDFC2078000602D50220BDE8F08744
:100A40000120FBE72DE9FF4F0C461E464FF0FF3714
:100A50008BB0D2E90001DDF860800A908A46C1F3CC
:100A60000A5505B93D46002108464FF00000BAF18D
:100A7000000F00F4400005DA00EB80004FF4400165
:100A800001EA50004FEA9059B9F1010F00DDB94673
:100A90000A9850EA4A000ED044F61050A5F2FF35ED
:100AA00045432F14B8F1000F1ED07542291E1EDDDC
:100AB000C9F100021CE0B8F1010F4FF0000001D0B5
:100AC000302103E0F24305E02154401CB042FBDB3F
:100AD00030460022002121540B99C1F80880C1E959
:100AE00000200FB0BDE8F08FBD1B6D1CDEE74A464D
:100AF00000DA694206A800F0F3FB06AB93E80700B2
:100B000003AB83E8070050460A9902F09CF88DE891
:100B10000700A0F500501F3800900398002D0ADD53
:100B200042F21F014A460844002303A90390684685
:100B300002F006FB09E0A0F500504A461F380023EA
:100B400003A90390684602F010FB8DE8070000043B
:100B5000000C03D04FF0FF30410800E01046B8F120
:100B6000000F03D00022009215461EE0751E05D42A
:100B7000FFF7CAFE303262556D1EF9D5B346012229
:100B8000084302D000227F1C04E02078302801D1E5
:100B900000227F1E002A099784D01DE0112D07DA5C
:100BA000FFF7B2FE303262556D1C50EA0102F5D1FA
:100BB000084302D00098C8B10EE00021681E05E08D
:100BC000235C625C63542254401E491C8142F7DB63
:100BD000AB46A81B401E0990002004F80B000B98A0
:100BE000099AC0F80880C0E9002B7AE711264FF077
:100BF000000857E72DE9F04F88460446D21D22F041
:100C0000070191B0D1E90001CDE90A0102F0E4FB4E
:100C100002460B98C00F01D02D2007E02068810705
:100C200001D52B2002E0202101EAC000032A09900F
:100C300001D0072A05DB03464146204600F010FBA1
:100C40000BE12078800601D5E06900E00620B8F1CC
:100C5000650F814606D0B8F1660F18D0B8F1670F5E
:100C600070D131E00020B9F1110F009001DB1123A8
:100C700001E009F101030AAA01A90CA8FFF7E2FEAD
:100C8000DDE90C70002609F10105834647E00120EB
:100C90004B4600904FF000470AAA01A90CA8FFF7A5
:100CA000D1FEDDE90DB00C995D46002610B909F1C1
:100CB00001000D18B9EB050003D4C0F1FF3609F1AE
:100CC0000105A5EB09002BE0B9F1010F01DA4FF0A6
:100CD00001090020B9F1110F0090484601DD1123F0
:100CE00000E003460AAA01A90CA8FFF7ABFEDDE964
:100CF0000C704D4600268346207800070AD4AB4589
:100D000000DA5D4601A8012D04DD411911F8011C2E
:100D1000302907D04F4502DA17F1040F04DA012019
:100D200082460FE06D1EEEE7002F02DCED1B3E4415
:100D300003E0781CA84200DD7D1CB81B00F1010A0D
:100D40004FF000472078000703D4AA4501DB4FF09D
:100D5000FF3A0021B7F1004F0DF143088DF8431021
:100D600024D002202B23002F01DA7F422D230A21D9
:100D7000021EA0F1010000DC5FB197FBF1FC97FBC4
:100D8000F1F201FB1C7C17460CF1300C08F801CD88
:100D9000EEE7A8F1010003702188090501D545217E
:100DA00000E06521A0F1010800F8011C09980FA9D5
:100DB000A1EB0807FF1D00B10120411901EBEA700A
:100DC000A1693844081A401EA0612078C00602D4E8
:100DD0002046FFF7E6FA099828B1D4E901219047A7
:100DE000206A401C20622078C00622D52046FFF7EA
:100DF000D8FA1EE0002E04DBB34502DD01A8805DB9
:100E000000E03020D4E901219047206A401C206294
:100E1000761CAAF101005FEA000A0AD100F01CFA70
:100E2000C0680168405CD4E901219047206A401CF9
:100E30002062281EA5F10105DCDC07E0D4E90121D0
:100E400018F8010B9047206A401C2062381EA7F159
:100E50000107F3DC2046FFF7BAFA032011B041E6A0
:100E60002DE9F04F04460D46D21D22F0070089B04F
:100E7000D0E900974846394602F0AEFA0246F80F2C
:100E800001D02D2307E02068810701D52B2302E044
:100E9000202101EAC0038DF820300BB1012000E0D1
:100EA0000020032A824601D0072A04DB2946204677
:100EB00000F0D6F93FE12078800601D40D2500E04E
:100EC000E569C7F30A560D2D49DA00214FEA175B91
:100ED00008464FF00000002F00F4400007DA00EB56
:100EE00080004FF4400100EBD07001EA60008115F2
:100EF000012901DD4FF0FF3100224FEA850CBCF1E2
:100F0000180F06D31346ACF118004FF08052C240C0
:100F100003E04FF4801323FA0CF30CF10C0CBCF13A
:100F2000200F04D3ACF1200C09FA0CF001E007FA11
:100F30000CF000294FF0004801DD18B90FE00ED188
:100F400040450CD319EB02095F4121B9404502D15C
:100F50009F4329EA0209BBEB175F00D0761C20886B
:100F6000000502D57B48784402E07A487844193875
:100F700008AA302302F80A30037C0AF10101002E8E
:100F80000AF1020A53546A4602DC4FF0300101E0D4
:100F90004FF031014FF001088DF8001002D0A6F299
:100FA000FF3603E059EA470100D06B4E002D02DC0A
:100FB0002178090704D54FF002082E218DF8011081
:100FC000C44600210BE0C7F303433F01C35C491C47
:100FD0006D1E02F80830052908F1010801DA002D1C
:100FE000F1DC00210CE000EB1973491C1B786D1E2D
:100FF000082902F808304FEA091908F1010801DA56
:10100000002DF0DC21688B0602D516E0A8F101085E
:10101000E04505DD02EB080313F8013C302BF5D069
:10102000B8F1000F09DD02EB080313F8013C2E2B89
:1010300003D1090701D4A8F10108002D05DD3E21E7
:1010400002F808106D1E08F10108407C002E02F81D
:10105000080008F1010804DA2D20764202F80800A1
:1010600002E02B2002F808000A214FF47A70864231
:1010700008F101080BDB96FBF0F3303302F808307F
:1010800096FBF0F308F1010800FB136601E0642E03
:101090000CDB642096FBF0F3303302F8083096FB4B
:1010A000F0F308F1010800FB136601E00A2E06DBED
:1010B00096FBF1F0303002F8080008F1010896FBC9
:1010C000F1F001FB1060303002F80800A16908F16E
:1010D000010808EB050202EB0A00081AA06120785B
:1010E000C00602D42046FFF75CF9216A08AE01EB86
:1010F0000A00206204E0D4E9012116F8010B9047B0
:10110000BAF1010AF7D22078C00602D52046FFF7CF
:1011100048F96E4609E016F8010B3E280FD0D4E9D5
:1011200001219047206A401C2062B8F10108F2D2E8
:101130002046FFF74CF909B00320BDE8F08F206A84
:101140002844206203E0D4E90121302090476D1E3D
:10115000EBD3F8E75A25000002FCFFFF10B5436906
:1011600013B1AFF3008001E0FFF754F9012010BD87
:10117000127800F124010A7000224A700122EDE782
:1011800011684FF0FF32E9E710B5436913B1AFF3CF
:10119000008001E0FFF7D6F9012010BD128800F1B0
:1011A000240182840022C2840122EDE711684FF0FD
:1011B000FF32E9E72DE9F04116460C46054600F0FE
:1011C00043F8036893F80101012807D0FF2C12D8D7
:1011D000185D80B101202C70BDE8F081D3F80701C3
:1011E0003246214603F20713C7182846BC46BDE81D
:1011F000F041002360474FF0FF30EDE7754600F007
:10120000EBF8AE4605006946534620F007008546D8
:1012100018B020B5FFF732F8BDE820404FF00006C7
:101220004FF000074FF000084FF0000BAC46ACE861
:10123000C009ACE8C009ACE8C009ACE8C00921F0BD
:1012400007018D467047000010B500F005F8001D3D
:1012500010BD00BFE92100000048704730000020A9
:101260002DE9F0411F46044603260168072A01F4D0
:10127000006004DB08B116A505E016A503E008B17F
:1012800015A500E015A521F010002060A069C01E82
:10129000A0610FB1401EA0612046FFF782F84FB158
:1012A000D4E9012138469047206A401C2062C01CC6
:1012B000206206E0206AFAE7D4E9012115F8010B63
:1012C0009047761EF8D22046FFF781F8BDE8F081FE
:1012D0004E414E006E616E00494E4600696E6600DA
:1012E0002DE9F047814616468AB0354878440DC846
:1012F0008DE80D0032487844801C03AC0DC884E8AA
:101300000D0041F69B300844372190FBF1F290FB31
:10131000F1F5A5F1800501FB12041B3C02D56442E6
:10132000012000E00020DFF898A080460027FA4462
:10133000AAF1BE0A0EE0E0070AD03246684607EB83
:10134000470101230AEB810101F00FFF8DE807003F
:1013500064107F1C002CEED1194F7F44AE3F19E082
:10136000E80715D007EB04100DF1180A90E80E00FD
:101370008AE80E00C068F04201D198190890324600
:10138000012306A903A801F0F0FE03AB83E80700E0
:101390006D10641C002DE3D14FF001033246694605
:1013A000B8F1000F03A802D001F0CAFE01E001F07D
:1013B000DCFEC9E90001C9F808200AB0BDE8F087E1
:1013C0006422000010B50446AFF300802046BDE85B
:1013D0001040FEF73EBF000000487047100000209C
:1013E00001491820ABBEFEE726000200704700004E
:1013F000FFE7FEE77047000081B0EFF3108072B6A0
:101400000090FFE7FEE7000090B00F900E910020E3
:101410000D900990FFE70E9800680D99C8400028CC
:1014200000F07F81FFE70D99012088400C900E9815
:1014300000680C9908400B900B980C99884240F07A
:101440006C81FFE70E9840680590002851D0FFE7B7
:10145000059801283AD0FFE7059802283FD0FFE71A
:10146000059803285FD0FFE70598112832D0FFE7E1
:101470000598122838D0FFE705980021C1F2110124
:10148000884236D0FFE705980021C1F21201884258
:101490002FD0FFE705980021C1F22101884228D012
:1014A000FFE705980021C1F22201884221D0FFE721
:1014B00005980021C1F2310188421AD0FFE7059852
:1014C0000021C1F23201884213D02FE00E98C0688B
:1014D00009902CE00E98C0680430099027E00E981F
:1014E000C0680830099022E00E98C0680C3009905E
:1014F0001DE00E98806818B9FFE70420099011E0FC
:101500000E988068012806D1FFE7082009900C9802
:101510000F99086105E0082009900C980F9948611F
:10152000FFE7FFE703E00020099000E0FFE70B98EA
:10153000FF2803D8FFE70F98049003E00F980430CA
:101540000490FFE7049808900B98FF2804D8FFE761
:101550000D988000039006E00D996FF01F0000EBDE
:1015600081000390FFE70398079008980068079AA6
:101570000F219140884309999140084308990860D8
:101580000E98C079C006002840F1C680FFE7FFE74B
:1015900041F21800C4F20200016841F0010101604B
:1015A000006800F0010006900698FFE70D9820F013
:1015B00003000821C4F2010140580A900D9800F080
:1015C000030081000F2000FA01F10A9888430A9075
:1015D0000F9840F60001C4F20101884203D1FFE7F1
:1015E0000020029026E00F9840F60041C4F201016D
:1015F000884203D1FFE70120019018E00F9841F2E3
:101600000001C4F20101884203D1FFE702200090EB
:101610000AE00F9941F20042C4F201020420914213
:1016200008BF03200090FFE700980190FFE70198B2
:101630000290FFE702980D9901F00301890000FA7A
:1016400001F10A9808430A900A980D9921F00301C4
:101650000822C4F2010288500E988079C006002842
:1016600009D5FFE70B9A40F20841C4F2010108686E
:101670001043086008E00B9A40F20841C4F20101EF
:10168000086890430860FFE70E988079800600287C
:1016900009D5FFE70B9A40F20C41C4F2010108683A
:1016A0001043086008E00B9A40F20C41C4F20101BB
:1016B000086890430860FFE70E988079800700284B
:1016C00009D5FFE70B9A40F20441C4F20101086812
:1016D0001043086008E00B9A40F20441C4F2010193
:1016E000086890430860FFE70E988079C00748B10A
:1016F000FFE70B9A40F20041C4F201010868104371
:10170000086008E00B9A40F20041C4F20101086849
:1017100090430860FFE7FFE7FFE70D9801300D9069
:1017200079E610B07047000082B00190ADF8021069
:101730008DF801209DF8010028B1FFE7BDF80200F7
:101740000199086105E0BDF80200000401990861F3
:10175000FFE702B07047000040F2D000C2F2000084
:101760000068704740F20400C2F20000027840F2C4
:10177000D001C2F200010868104408607047000000
:1017800080B542F20001C4F20201086840F0100086
:101790000860032000F08CF80F2000F005F800F03E
:1017A0003BF8002080BD000080B582B0009040F280
:1017B0000000C2F20000006840F20401C2F2000121
:1017C0000A784FF47A71B1FBF2F1B0FBF1F000F05E
:1017D00085FD20B1FFE701208DF8070018E0009893
:1017E0000F280DD8FFE700994FF0FF30002200F0DE
:1017F00045F8009840F20801C2F20001086003E0D9
:1018000001208DF8070003E000208DF80700FFE7B6
:101810009DF8070002B080BD83B0FFE741F21800D9
:10182000C4F20200016841F001010160006800F0AB
:10183000010002900298FFE7FFE741F21C00C4F2AA
:101840000200016841F080510160006800F08050A2
:1018500001900198FFE7FFE70421C4F20101086845
:101860000090009820F0E0600090009840F0007038
:10187000009000980860FFE703B0704780B586B01D
:101880008DF81700049103920020029000F0ACFF45
:1018900002909DF91700019002980499039A00F0B4
:1018A00081FE0146019800F0A7FF06B080BD000050
:1018B00080B582B00190019800F0C0FF02B080BDF9
:1018C0007047000080B584B002900191029820B961
:1018D000FFE701208DF80F001BE1019842F20001A3
:1018E000C4F20201096801F00701884216D9FFE736
:1018F00042F20000C4F20200016821F00701019ADF
:1019000011430160006800F007000199884204D08B
:10191000FFE701208DF80F00FBE0FFE70298007859
:10192000800700282AD5FFE70298007840070028A2
:1019300009D5FFE741F20401C4F20201086840F44E
:10194000E0600860FFE7029800780007002809D5EA
:10195000FFE741F20401C4F20201086840F460505C
:101960000860FFE741F20401C4F20201086820F0B8
:10197000F000029A926810430860FFE7029800782E
:10198000C007002860D0FFE70298406801280ED108
:10199000FFE741F20000C4F2020000688003002863
:1019A00004D4FFE701208DF80F00B2E021E0029897
:1019B000406802280ED1FFE741F20000C4F20200A5
:1019C00000688001002804D4FFE701208DF80F0093
:1019D0009FE00DE041F20000C4F2020000688007C1
:1019E000002804D4FFE701208DF80F0091E0FFE705
:1019F000FFE741F20401C4F20201086820F003008D
:101A0000029A526810430860FFF7A6FE0090FFE7B5
:101A100041F20400C4F20200006800F00C000299D8
:101A20004968B0EB810F0ED0FFE7FFF795FE0099F4
:101A3000401A41F28931884204D3FFE703208DF830
:101A40000F0066E0E4E7FFE7019842F20001C4F20C
:101A50000201096801F00701884216D2FFE742F24D
:101A60000000C4F20200016821F00701019A11434D
:101A70000160006800F007000199884204D0FFE788
:101A800001208DF80F0044E0FFE70298007840073E
:101A900000280CD5FFE741F20401C4F202010868F6
:101AA00020F4E060029AD26810430860FFE70298D1
:101AB0000078000700280DD5FFE741F20401C4F2C9
:101AC0000201086820F46050029A126940EAC200DC
:101AD0000860FFE700F052F841F20401C4F202018D
:101AE0000968C9B20A0943F26C51C0F60001895C69
:101AF000C84040F20001C2F20001086040F2080054
:101B0000C2F200000068FFF74FFE00208DF80F00C2
:101B1000FFE79DF80F0004B080BD00004C21C4F227
:101B2000422101200860704740F20000C2F200002C
:101B30000068704780B5FFF7F7FF41F20401C4F277
:101B400002010968C1F3022243F27C51C0F6000190
:101B5000895CC84080BD000080B5FFF7E5FF41F219
:101B60000401C4F202010968C1F3C22243F27C51AC
:101B7000C0F60001895CC84080BD000086B000202E
:101B80000590049003900290019041F20400C4F289
:101B9000020000680590059800F00C0001460091D5
:101BA00000283FD0FFE70098042804D0FFE7009802
:101BB000082806D037E041F20020C0F27A000190F8
:101BC00037E00598C0F3834143F28450C0F600002B
:101BD000405C02909DF81600C007C0B1FFE741F2DB
:101BE0000400C4F202000068C0F3404143F2945084
:101BF000C0F60000405C0490029841F20021C0F25F
:101C00007A0148430499B0FBF1F0039007E0029891
:101C100040F60011C0F23D0148430390FFE70398EE
:101C2000019006E0FFE741F20020C0F27A00019047
:101C3000FFE7019806B0704780B541F20800C4F292
:101C4000020000680006002809D5FFE7FFF738FE0C
:101C500041F20A01C4F2020180200870FFE780BD52
:101C600080B586B00490049820B9FFE701208DF874
:101C700017002EE304980078C007002800F0AE801B
:101C8000FFE741F20400C4F20200006800F00C001B
:101C9000042813D0FFE741F20400C4F202000068F8
:101CA00000F00C0008281BD1FFE741F20400C4F249
:101CB00002000068C003002812D5FFE741F20000CF
:101CC000C4F2020000688003002808D5FFE70498EA
:101CD000406820B9FFE701208DF81700F9E27CE0A9
:101CE000FFE704984068B0F5803F09D1FFE741F273
:101CF0000001C4F20201086840F48030086032E05C
:101D00000498406868B9FFE741F20001C4F202019B
:101D1000086820F480300860086820F4802008609B
:101D200020E004984068B0F5A02F0DD1FFE741F204
:101D30000001C4F20201086840F4802008600868CD
:101D400040F4803008600CE041F20001C4F202016E
:101D5000086820F480300860086820F4802008605B
:101D6000FFE7FFE7FFE7FFE704984068D0B1FFE730
:101D7000FFF7F2FC0390FFE741F20000C4F202001B
:101D80000068800300280CD4FFE7FFF7E5FC039907
:101D9000401A652804D3FFE703208DF8170098E266
:101DA000EAE719E0FFF7D8FC0390FFE741F20000F3
:101DB000C4F202000068800300280CD5FFE7FFF79B
:101DC000CBFC0399401A652804D3FFE703208DF864
:101DD00017007EE2EAE7FFE7FFE7FFE704980078F5
:101DE0008007002840F18D80FFE741F20400C4F233
:101DF0000200006810F00C0F13D0FFE741F204005E
:101E0000C4F20200006800F00C00082829D1FFE7A6
:101E100041F20400C4F202000068C003002820D48C
:101E2000FFE741F20000C4F20200006880070028CA
:101E300009D5FFE704980069012804D0FFE70120D5
:101E40008DF8170045E241F20001C4F20201086872
:101E500020F0F800049A526940EAC2000860FFE7E7
:101E60004EE00498006958B3FFE70021C4F2422114
:101E700001200860FFF770FC0390FFE741F20000CB
:101E8000C4F202000068800700280CD4FFE7FFF7C7
:101E900063FC0399401A032804D3FFE703208DF85D
:101EA000170016E2EAE741F20001C4F202010868F5
:101EB00020F0F800049A526940EAC20008601EE06F
:101EC0000021C4F2422100200860FFF745FC039086
:101ED000FFE741F20000C4F202000068800700281A
:101EE0000CD5FFE7FFF738FC0399401A032804D309
:101EF000FFE703208DF81700EBE1EAE7FFE7FFE7D4
:101F0000FFE7049800780007002848D5FFE7049809
:101F1000806918B3FFE740F28041C4F242210120FA
:101F20000860FFF719FC0390FFE741F22400C4F2B8
:101F300002000068800700280CD4FFE7FFF70CFCC4
:101F40000399401A032804D3FFE703208DF81700F4
:101F5000BFE1EAE7012000F05DFB1FE040F28041B5
:101F6000C4F2422100200860FFF7F6FB0390FFE770
:101F700041F22400C4F202000068800700280CD55A
:101F8000FFE7FFF7E9FB0399401A032804D3FFE7B3
:101F900003208DF817009CE1EAE7FFE7FFE70498CC
:101FA00000784007002840F1D880FFE700208DF836
:101FB000070041F21C00C4F202000068C0000028C3
:101FC00013D4FFE7FFE741F21C00C4F202000168EE
:101FD00041F080510160006800F08050009000984E
:101FE000FFE701208DF80700FFE747F20000C4F289
:101FF00000000068C005002822D4FFE747F2000176
:10200000C4F20001086840F480700860FFF7A4FB88
:102010000390FFE747F20000C4F200000068C0052B
:1020200000280CD4FFE7FFF797FB0399401A6528B7
:1020300004D3FFE703208DF817004AE1EAE7FFE742
:10204000FFE70498C068012809D1FFE741F22001A9
:10205000C4F20201086840F00100086031E0049811
:10206000C06868B9FFE741F22001C4F202010868C4
:1020700020F001000860086820F0040008601FE0FC
:102080000498C06805280DD1FFE741F22001C4F291
:102090000201086840F004000860086840F0010090
:1020A00008600CE041F22001C4F20201086820F04F
:1020B00001000860086820F004000860FFE7FFE7FF
:1020C000FFE7FFE70498C068E0B1FFE7FFF744FBD4
:1020D0000390FFE741F22000C4F20200006880078D
:1020E00000280ED4FFE7FFF737FB0399401A41F2AF
:1020F0008931884204D3FFE703208DF81700E8E018
:10210000E8E71BE0FFF728FB0390FFE741F2200020
:10211000C4F202000068800700280ED5FFE7FFF731
:102120001BFB0399401A41F28931884204D3FFE72F
:1021300003208DF81700CCE0E8E7FFE79DF80700E3
:10214000012809D1FFE741F21C01C4F2020108682D
:1021500020F080500860FFE7FFE70498C06900287E
:1021600000F0B380FFE741F20400C4F2020000680F
:1021700000F00C00082800F08280FFE70498C06996
:1021800002285CD1FFE76021C4F2422100200860F0
:10219000FFF7E2FA0390FFE741F20000C4F2020009
:1021A0000068800100280CD5FFE7FFF7D5FA0399F6
:1021B000401A032804D3FFE703208DF8170088E0B6
:1021C000EAE70498006AB0F5803F0CD1FFE741F2DE
:1021D0000401C4F20201086820F40030049A9268F5
:1021E00010430860FFE741F20401C4F202010868ED
:1021F00020F47410049B1A6A5B6A1A431043086047
:102200006021C4F2422101200860FFF7A5FA039083
:10221000FFE741F20000C4F20200006880010028DC
:102220000CD4FFE7FFF798FA0399401A032804D368
:10223000FFE703208DF817004BE0EAE71EE060217E
:10224000C4F2422100200860FFF786FA0390FFE7FE
:1022500041F20000C4F202000068800100280CD5A1
:10226000FFE7FFF779FA0399401A032804D3FFE741
:1022700003208DF817002CE0EAE7FFE724E004983C
:10228000C069012804D1FFE701208DF8170020E084
:1022900041F20400C4F2020000680290029800F4C7
:1022A00080300499096A884208D1FFE7029800F457
:1022B00070100499496A884204D0FFE701208DF824
:1022C000170006E0FFE7FFE7FFE700208DF81700A3
:1022D000FFE79DF8170006B080BD000080B582B012
:1022E0000190019800F0B6F902B080BD80B582B0CF
:1022F0000090009820B9FFE701208DF8070040E02A
:102300000098806908B1FFE700E0FFE7009890F8C7
:10231000410040B9FFE70099002081F84000009893
:1023200000F034F8FFE70099242081F8410000987C
:102330000168C86820F40050C860009800F0F4F903
:1023400000980168086920F49040086100980168CD
:10235000486920F02A00486100980168C86840F484
:102360000050C860009900204864009A202182F83B
:102370004110009A82F84210009948638DF80700D6
:10238000FFE79DF8070002B080BD000080B58AB06D
:102390000990002008900790069005900998006821
:1023A00043F60001C4F20101884248D1FFE7FFE78C
:1023B00041F21800C4F20200016841F4804101605A
:1023C000006800F4804004900498FFE7FFE741F2C2
:1023D0001800C4F20200016841F0080101600068C1
:1023E00000F0080003900398FFE7402005900220CA
:1023F00006900320089040F60040C4F201000090CF
:1024000005A90191FFF700F8009801998022059233
:10241000002206920792FEF7F7FFFFE70421C4F2BD
:10242000010108680290029840F0E0600290029872
:1024300040F00400029002980860FFE7FFE70AB04E
:1024400080BD0000FFE7FEE780B590B000200F9050
:102450000E900D900C90FFE741F21800C4F20200BC
:10246000016841F010010160006800F010000B905D
:102470000B98FFE7FFE741F21800C4F20200016881
:1024800041F020010160006800F020000A900A98E5
:10249000FFE7FFE741F21800C4F20200016841F0D3
:1024A00004010160006800F0040009900998FFE74A
:1024B000FFE741F21800C4F20200016841F0080190
:1024C0000160006800F0080008900898FFE740F6F7
:1024D0000000C4F20100069048F280310091002211
:1024E0000592FFF721F9059A40F60040C4F2010079
:1024F000039041F223010491FFF716F9009A059920
:1025000006980C92012201920D920E9102210291E5
:102510000F910CA90791FEF777FFDDF804C0029A2E
:102520000398059B0799DDF810E0CDF830E0CDF871
:1025300034C00E930F92FEF767FF059A069807992D
:102540004FF480630C930D920E92FEF75DFF10B076
:1025500080BD000080B582B040F28800C2F2000069
:10256000019043F60001C4F2010101604FF4E13132
:10257000416000218160C16001610C224261816182
:10258000C161FFF7B3FE18B1FFE7FEF735FFFFE7C4
:1025900002B080BDFFE7FEE780B5FFF74DFBFFE728
:1025A000FEE7000088B0079006910592079800F0BA
:1025B000070004900498C0F10700052803D3FFE743
:1025C0000420019004E00498C0F107000190FFE7A7
:1025D0000198039004980430062803D8FFE70020F0
:1025E000009003E0049803380090FFE70098029001
:1025F00006980399012202FA01F101390840029B71
:10260000984005999A40013A1140084308B0704734
:102610007047000082B00190019840F20001C2F2C0
:1026200000010968C90844F6D352C1F26202A1FB55
:102630000221890948430090FFE700BFFFE70098A7
:10264000411E00910028F8D1FFE702B0704700005A
:102650007047000080B582B0009000980138B0F15A
:10266000807F03D3FFE70120019019E00098013833
:102670004EF21401CEF2000108604FF0FF300F213E
:1026800000F0BAF84EF21801CEF200010020086006
:102690004EF21002CEF20002072111600190FFE716
:1026A000019802B080BD000080B5FFF75BF880BDE7
:1026B00080B590B006A800902821FDF707FE00988D
:1026C000002105910491039102910191012206924A
:1026D0004FF4803107914FF4003308930A9202229D
:1026E0000D920E914FF460110F91FFF7B9FA18B1E6
:1026F000FFE7FEF781FEFFE70F2001900221029124
:10270000002003904FF480620492059001A8FFF727
:10271000D9F818B1FFE7FEF76FFEFFE7FFF7FEF904
:1027200010B080BD7047000080B584B0039003985E
:102730000068006920F44050039A1168D268104381
:102740000861039988680A6949691043084302903F
:1027500003980068C06841F20C61884302990843FD
:1027600003990968C86003980068406920F44070C4
:10277000039A11689269104348610398006843F610
:102780000001C4F20101884204D1FFE7FFF7E4F938
:10279000019003E0FFF7CEF90190FFE701981921BE
:1027A0004843039A116852689200B0FBF2FC48F269
:1027B0001F52C5F2EB12ACFB02304309642003FB4D
:1027C00010CC322000EB0C10A0FB0202F02000EA3B
:1027D000521000EB0310C2F343121044886004B09F
:1027E00080BD0000FFE7FEE74EF60C50CEF2000081
:1027F0000068C0F30220704782B08DF80700009196
:102800009DF9070000280AD4FFE7009800019DF910
:1028100007104EF20042CEF2000288540BE00098FE
:1028200000019DF8071001F00F014EF61452CEF290
:1028300000028854FFE702B07047000083B00290A6
:10284000029800F0070000904EF60C51CEF2000105
:102850000868019001984FF6FF021040019001981E
:10286000009A40EA02200022C0F2FA52104301907E
:102870000198086003B0704780B582B08DF80700FA
:102880008DF8061000208DF805009DF807000F2830
:1028900005DCFFE79DF8060002280CDBFFE740F2AD
:1028A0007501C2F200010020087040F27601C2F208
:1028B000000108700EE09DF8070040F27501C2F2B9
:1028C000000108709DF8060040F27601C2F2000196
:1028D0000870FFE740F27600C2F200000178C020E5
:1028E000002908BF80208DF805009DF8050040F202
:1028F0007501C2F20001097808448DF805009DF8C1
:102900000500002100F08EF802B080BD80B586B0D1
:1029100040F27401C2F2000104910020029008709C
:102920004CF2503000F020F940F60040C4F20100B3
:102930004FF4805101220592FEF7F6FE02993320F2
:1029400000F070F841F28830039000F00DF9029920
:10295000322000F067F8039800F006F90299282069
:1029600000F060F8039800F0FFF802990C20019045
:1029700000F058F8039800F0F7F80198029900F079
:1029800051F8039800F0F0F80299062000F04AF898
:10299000039800F0E9F80299059800F043F80398CD
:1029A00000F0E2F804990598087006B080BD0000B8
:1029B00080B582B08DF807009DF80700012100F076
:1029C00031F840F27500C2F2000001780131017067
:1029D0000078102812DBFFE740F27500C2F2000019
:1029E0000021017040F27601C2F200010A78013242
:1029F0000A7000780978FFF73FFFFFE702B080BD5B
:102A000080B582B00190FFE70198007838B1FFE708
:102A10000198411C01910078FFF7CAFFF4E702B06A
:102A200080BD000080B588B08DF81F008DF81E10A5
:102A30009DF81E0000F0010240F60000C4F2010003
:102A400005904FF40041FEF76FFE05989DF81F10AA
:102A5000C1F300128021FEF767FE9DF81F00C0F34E
:102A6000401240F60040C4F201000490012106919A
:102A7000FEF75AFE04989DF81F10C1F38012022140
:102A8000FEF752FE05989DF81F10CA094FF4007119
:102A9000FEF74AFE0598069A4FF48071FEF744FE51
:102AA00040F27400C2F200000078C00728B9FFE7C6
:102AB00041F2883000F058F803E0322000F054F87A
:102AC000FFE740F60000C4F2010001904FF480716E
:102AD00002910022FEF728FE01989DF81F1001F0D8
:102AE00001028021FEF720FE9DF81F00C0F3400286
:102AF00040F60040C4F20100009001210391FEF76E
:102B000013FE00989DF81F10C1F380020221FEF70A
:102B10000BFE01989DF81F10C1F3C0024FF4007125
:102B2000FEF702FE01980299039AFEF7FDFD40F2BE
:102B30007400C2F200000078C00728B9FFE741F234
:102B4000883000F011F803E0322000F00DF8FFE7C4
:102B500040F60000C4F201004FF480710022FEF73D
:102B6000E3FD08B080BD000086B0059040F2000093
:102B7000C2F2000000684DF68361C4F21B31A0FB75
:102B80000110800C0599484304904EF21800CEF2D3
:102B90000000006803904EF21400CEF200000068BE
:102BA0000130029000200190FFE7019804998842CB
:102BB0001ED2FFE74EF21800CEF20000006800902F
:102BC00003980099884207D3FFE703980099411AB8
:102BD00001980844019008E003980299009A891A24
:102BE0000144019808440190FFE700980390DCE756
:102BF00006B0704780B582B000200190FEF7C0FD9E
:102C0000FFF756FDFFF720FCFFF7A4FCFFF77EFE61
:102C1000FFE740F27001C2F200010A68501C086030
:102C200040F27700C2F20000009043F29651C0F6E5
:102C30000001FDF735FB00210846FFF71DFE009857
:102C4000FFF7DEFEE5E75FEA400C08BF91F0000FFA
:102C50004FEA8C234FEAC12243EA51514FEA1C50FC
:102C600018BF00F5F0404FEA300018BF41F00041B6
:102C70005FEA6C5C00F02980BCF1FF3F08BF40F0C8
:102C800080407047130C06BF12044FF0100C4FF039
:102C9000000C130E04BF12020CF1080C130F04BF3A
:102CA00012010CF1040C930F04BF92000CF1020C02
:102CB000D30F04BF52000CF1010C11464FF000027B
:102CC000A0F11F00A0EB0C00704711F0004F08BFEF
:102CD000704731F000413FF4D5AF0B0C06BF09043B
:102CE0004FF0100C4FF0000C0B0E04BF09020CF15A
:102CF000080C0B0F04BF09010CF1040C8B0F04BF6F
:102D000089000CF1020CCB0F04BF49000CF1010C3F
:102D1000CCF1200322FA03F341EA030102FA0CF298
:102D2000A0EB0C0000F101007047000023F07F478A
:102D300020F07F4C80EA030000F00040ACEB07037A
:102D400003F57C5303F1FF032DE9804909B44FEAF1
:102D5000144324EA03484FEA154B25EA0B4E0FF2C1
:102D6000042606EB13273E7803FB0667C7F500072A
:102D700007FB06F64FEAD64606F102064FEA54373D
:102D800007FB066CCCF1005C4FEA1C472CEA074CB1
:102D90000CFB06F507FB06F404EB15464FEA961606
:102DA00049085FEA320234BF00204FF000404FEA8A
:102DB000D13706FB07FC4FEA1C4C0CFB0BF7D21B70
:102DC00003FB0CF761EB07010CFB0EF7B0EB0740C0
:102DD00072EB17420CFB08F734BFA2EB0742B2EBD1
:102DE000074261EB17414FEA0C444FEA910706FB9B
:102DF00007FC4FEA1C4C0CFB0BF7B0EBC74072EB27
:102E0000573203FB0CF734BFA2EBC742B2EBC74209
:102E100061EB57310CFB0EF7B0EBC70072EB57724A
:102E20000CFB08F734BFA2EBC702B2EBC70261EBA1
:102E300057714FEA816141EA92114FEA826242EA98
:102E400090124FEA806004EBCC04039F4FEAD13725
:102E500006FB07FC4FEA1C4C0CFB0BF7D21B03FBD9
:102E60000CF761EB07010CFB0EF7B0EB074072EBC0
:102E700017420CFB08F734BFA2EB0742B2EB074244
:102E800061EB17414FEA8C5504EB9C244FEA910704
:102E900006FB07FC4FEA1C4C0CFB0BF7B0EBC740E2
:102EA00072EB573203FB0CF734BFA2EBC742B2EB15
:102EB000C74261EB57310CFB0EF7B0EBC70072EB6A
:102EC00057720CFB08F734BFA2EBC702B2EBC70284
:102ED00061EB57714FEA816141EA92114FEA8262D8
:102EE00042EA90124FEA806015EB4C2544F1000451
:102EF0004FEAD13706FB07FC4FEA1C4C0CFB0BF7E3
:102F0000D21B03FB0CF761EB07010CFB0EF7B0EBD8
:102F1000074072EB17420CFB08F734BFA2EB0742E5
:102F2000B2EB074261EB17414FEA813141EA92412E
:102F30004FEA823242EA90424FEA80304FEA0C7602
:102F400015EB1C1544F1000448EA03434EEA0B4814
:102F50004FF0000EB2EB080C71EB030724BF624682
:102F600039464EEB0E0E4FF0000B0018524149410E
:102F70004BEB0B0BB2EB080C71EB03077BF1000B77
:102F800024BF624639464EEB0E0E4FF0000B001880
:102F9000524149414BEB0B0BB2EB080C71EB0307B1
:102FA0007BF1000B24BF624639464EEB0E0E51EA10
:102FB000020718BF46F0010616EB0E7655F1000227
:102FC00054F1000103D5BDE88901BDE80088BDE8E2
:102FD0008901BDE80048B619524141EB0101A3F156
:102FE0000103704780807F7E7D7C7B7A797877765D
:102FF00076757473727171706F6E6E6D6C6C6B6AD6
:103000006A69686867666665646463636261616073
:10301000605F5F5E5E5D5D5C5C5B5B5A5A595958F0
:10302000585757565655555554545353525252515A
:10303000515050504F4F4F4E4E4D4D4D4C4C4C4BB0
:103040004B4B4A4A4A4949494848484747474746F7
:103050004646454545444444444343434342424233
:10306000424141419C46002B30D477002BD04FEA9F
:1030700037071CB503B44FF010004FF01001BAF140
:10308000000F06D0BCF1000FDCBF40F0080040F09C
:1030900008014FF000000FBCBDE810400BF1010B20
:1030A000BBF1010F08BF5FEA170722BF12F101024F
:1030B00011F101014FF0004143F1000300F0004025
:1030C00043EA00007047F9D35708D0E746EA0646BE
:1030D0004FEA164613F1400F1FDD13F1200FDFBF3B
:1030E00016430A46002120335B42BED0C3F12007BD
:1030F00046EA06464FEA164602FA07F746EA070688
:1031000022FA03F2C3F1200701FA07F742EA0702A5
:1031100021FA03F14FF00003A7E746EA020646EA68
:1031200006464FEA164646EA0106BCBF46EA064690
:10313000360C4FF000034FF000024FF0000194E70F
:103140002DE9804C70B49A46934691E8380007C840
:1031500031EA400C48BF34EA430C03D5FFF7E6FDE3
:10316000FFF780FFF0BCBDE8008C2DE9804C70B407
:103170009A46934691E8380007C810F0804F08BF80
:1031800013F0804F03D100F005F8FFF76BFFF0BCA0
:10319000BDE8008C20F07F4723F07F4C80EA0300DD
:1031A00000F0004007EB0C03A3F57C53A3F1FE03F2
:1031B00092F0000F00F0B38095F0000F00F07780E0
:1031C0002DE901494FEA114021EA00484FEA14462F
:1031D00024EA064700FB06FC08FB06F607FB08F896
:1031E00018EB06484CEB164C00FB07F718EB0748AA
:1031F0004CEB17404FEA124B22EA0B4E4FEA1546B2
:1032000025EA06470BFB06FC0EFB06F607FB0EFE47
:103210001EEB064E4CEB164C0BFB07F71EEB074E56
:103220004CEB174B18EB0B0840F1000018EB0E0BA2
:1032300058EB000840F100008F1A4FF000014FF0EA
:1032400000063CBFC943661B14BFB5EB040C00214C
:103250003CBFC943F61B4FEA174427EA04454FEA2F
:103260001C472CEA074C04FB076205FB07F70CFB25
:1032700005F616EB074642EB174204FB0CFC16EB77
:103280000C4642EB1C421BEB060658EB0202414186
:103290004EEA8E0E46EA9E0601D5BDE80189B619B2
:1032A000524141EB0101A3F10103BDE801894FEA5D
:1032B000144524EA05464FEA114721EA074C05FB6D
:1032C00007F406FB07F70CFB06F111EB074144EB93
:1032D000174405FB0CFC11EB0C4144EB1C444FEA7A
:1032E000124722EA074C05FB07F206FB07F70CFB27
:1032F00006F616EB074642EB174205FB0CFC16EBF5
:103300000C4642EB1C456A1854F1000148BF704757
:10331000B619524141EB0101A3F10103704795F049
:10332000000F37D04FEA114221EA02464FEA144714
:1033300024EA074C02FB07F106FB07F70CFB06F437
:1033400014EB074441EB174102FB0CFC14EB0C445B
:1033500041EB1C414FEA154725EA074C02FB07F5F4
:1033600006FB07F70CFB06F616EB074645EB174581
:1033700002FB0CFC16EB0C4645EB1C42121951F1FA
:10338000000148BF7047B619524141EB0101A3F15A
:10339000010370474FEA144524EA05464FEA1147F6
:1033A00021EA074C05FB07F106FB07F70CFB06F2C9
:1033B00012EB074241EB174105FB0CFC12EB0C42F0
:1033C00051EB1C414FF0000648BF7047921841EB8B
:1033D0000101A3F101037047490050EAC12018BF61
:1033E00004204A0D18BF40F0010040F2FF72B2EB1A
:1033F000515F08BF40F00200012808BF0520704758
:1034000030380A2801D201207047002070470000A0
:1034100010B500290AD00878002807D0054878445C
:10342000FCF77CFF002801D0002010BD0248784442
:1034300010BD0000A60100009E01000010B500298B
:103440000AD00878002807D005487844FCF766FFC2
:10345000002801D0002010BD0248784410BD0000B3
:10346000960100008E010000FDF7C4BBFDF7F8BC1B
:1034700000000000000000003031323334353637B0
:1034800038394142434445464030580030313233A8
:1034900034353637383961626364656640307800A8
:1034A000040000080000000000000002000100000D
:1034B0001030313233343536373839616263646500
:1034C000667870003031323334353637383941421E
:1034D000434445465850000002400000000000A050
:1034E0000000000005400000000000C800000000CF
:1034F0000C4000000000409C00000000194000004B
:103500000020BCBE0000000034400000BFC91B8E7C
:1035100000000004B5400000504BCFD06607E2CF5A
:10352000010000006C4100003E8251AADFEEA7348A
:1035300001000000D9420000DCB5A0E23A301F973C
:10354000FFFFFFFFB4450000FD25A0C8E9A3C14F60
:10355000FFFFFFFFFF3F00000000008000000000B1
:10356000FF3F00000000008000000000000000009D
:103570000000000001020304060708090000000023
:103580000102030402030405060708090A0B0C0DD7
:103590000E0F10100102436F756E7465723D257534
:1035A00000000000F03600080000002010000000BD
:1035B000500100080037000810000020C806000075
:1035C000700100081C00000043000000F8FFFFFF2E
:1035D0000C0000000E0000000F0000002E00000094
:1035E0001001000043000000F8FFFFFF00404040D2
:1035F00040404040404041414141414040404040C6
:103600004040404040404040404040404005020271
:103610000202020202020202020202020220202030
:10362000202020202020200202020202020290908C
:10363000909090901010101010101010101010108A
:1036400010101010101010100202020202028888DE
:1036500088888888080808080808080808080808EA
:1036600008080808080808080202020240000000D2
:10367000000000000000000000000000000000004A
:10368000000000000000000000000000000000003A
:10369000000000000000000000000000000000002A
:1036A000000000000000000000000000000000001A
:1036B000000000000000000000000000000000000A
:1036C00000000000000000000000000000000000FA
:1036D00000000000000000000000000000000000EA
:1036E00000000000000000000000000000000000DA
:1036F00000127A000100000010000000000000002D
:04000005080000ED02
:00000001FF
