:020000040800F2
:1000000008070020B5010008F91C0008B51A00080F
:10001000F51C0008BD0200084D2300080000000088
:10002000000000000000000000000000B11D0008FA
:10003000C102000800000000711D0008F51F000843
:10004000CF010008CF010008CF010008CF01000850
:10005000CF010008CF010008CF010008CF01000840
:10006000D1020008CF010008CF010008CF0100082D
:10007000CF010008CF010008CF010008CF01000820
:10008000CF010008CF010008CF010008CF01000810
:10009000CF010008CF010008CF010008DD020008F1
:1000A000CF01000875200008CF010008CF0100082B
:1000B000CF010008CF010008CF010008CF010008E0
:1000C000CF010008CF010008CF010008CF010008D0
:1000D000CF010008CF010008CF010008CF010008C0
:1000E000C5020008CF010008CF01000800F002F8A7
:1000F00000F050F814A696E8000CB244B344DA4578
:1001000001D100F047F8BAE80F000FA696E83000DA
:10011000A5EB040504EB0607AAEB0704A7F101070A
:100120004FEA15154FEA3414A4F10104AC4201D38F
:1001300000F030F813F0010F18BFFB1A43F0010371
:1001400000F001F8DBE718473023000050230000DF
:10015000103A24BF78C878C1FAD8520724BF30C8F3
:1001600030C144BF04680C60704700007047000055
:100170000023002400250026103A28BF78C1FBD8B0
:10018000520728BF30C148BF0B6070471FB51FBD65
:1001900010B510BD00F058F81146FFF7F7FF02F058
:1001A00037F900F076F803B4FFF7F2FF03BC00F074
:1001B0007DF800000948804709480047FEE7FEE750
:1001C000FEE7FEE7FEE7FEE7FEE7FEE7FEE7FEE707
:1001D00004480549054A064B704700007120000895
:1001E000ED00000808010020080700200803002097
:1001F000080300204FF0000200B5134694469646CF
:10020000203922BFA0E80C50A0E80C50B1F1200129
:10021000BFF4F7AF090728BFA0E80C5048BF0CC0D7
:100220005DF804EB890028BF40F8042B08BF704735
:1002300048BF20F8022B11F0804F18BF00F8012BA7
:100240007047704770477047754600F02BF8AE4610
:1002500005006946534620F00700854618B020B5D2
:10026000FFF7B6FFBDE820404FF000064FF0000753
:100270004FF000084FF0000BAC46ACE8C009ACE80A
:10028000C009ACE8C009ACE8C00921F007018D46FF
:10029000704710B50446AFF300802046BDE810401B
:1002A000FFF781BF00487047100000200149182067
:1002B000ABBEFEE72600020070470000FFE7FEE746
:1002C0007047000080B54FF4005000F04DF880BD3D
:1002D00080B5042000F048F880BD000080B54020C3
:1002E00000F042F880BD000081B0EFF3108072B6DC
:1002F0000090FFE7FEE7000082B0ADF80600BDF811
:10030000060001460091042819D0FFE70098402814
:100310000DD0FFE70098B0F5005F11D1FFE740F284
:100320000001C2F2000108880130088008E040F2B4
:100330000001C2F2000108880A30088000E0FFE7EF
:1003400040F20000C2F20000008842F210718842C0
:1003500007DBFFE740F20001C2F200010020088045
:10036000FFE702B07047000080B582B0ADF806002C
:1003700040F21440C4F201000068BDF806100842C3
:100380000CD0FFE7BDF8060040F21441C4F20101B1
:100390000860BDF80600FFF7AFFFFFE702B080BDC1
:1003A00090B00F900E9100200D900990FFE70E98ED
:1003B00000680D99C840002800F07F81FFE70D9983
:1003C000012088400C900E9800680C9908400B9012
:1003D0000B980C99884240F06C81FFE70E984068BA
:1003E0000590002851D0FFE7059801283AD0FFE793
:1003F000059802283FD0FFE7059803285FD0FFE764
:100400000598112832D0FFE70598122838D0FFE769
:1004100005980021C1F21101884236D0FFE7059806
:100420000021C1F2120188422FD0FFE70598002178
:10043000C1F22101884228D0FFE705980021C1F2CE
:100440002201884221D0FFE705980021C1F2310145
:1004500088421AD0FFE705980021C1F23201884294
:1004600013D02FE00E98C06809902CE00E98C06859
:100470000430099027E00E98C0680830099022E007
:100480000E98C0680C3009901DE00E98806818B96D
:10049000FFE70420099011E00E988068012806D13A
:1004A000FFE7082009900C980F99086105E00820E3
:1004B00009900C980F994861FFE7FFE703E00020DF
:1004C000099000E0FFE70B98FF2803D8FFE70F989B
:1004D000049003E00F9804300490FFE7049808901C
:1004E0000B98FF2804D8FFE70D988000039006E0E2
:1004F0000D996FF01F0000EB81000390FFE7039858
:10050000079008980068079A0F219140884309993D
:1005100091400843089908600E98C079C0060028E9
:1005200040F1C680FFE7FFE741F21800C4F2020085
:10053000016841F001010160006800F001000690CF
:100540000698FFE70D9820F003000821C4F201018E
:1005500040580A900D9800F0030081000F2000FA27
:1005600001F10A9888430A900F9840F60001C4F2FE
:100570000101884203D1FFE70020029026E00F9896
:1005800040F60041C4F20101884203D1FFE7012097
:10059000019018E00F9841F20001C4F20101884275
:1005A00003D1FFE7022000900AE00F9941F20042D8
:1005B000C4F201020420914208BF03200090FFE72B
:1005C00000980190FFE701980290FFE702980D99CB
:1005D00001F00301890000FA01F10A9808430A902A
:1005E0000A980D9921F003010822C4F201028850F3
:1005F0000E988079C006002809D5FFE70B9A40F2D3
:100600000841C4F2010108681043086008E00B9A31
:1006100040F20841C4F20101086890430860FFE716
:100620000E9880798006002809D5FFE70B9A40F2E2
:100630000C41C4F2010108681043086008E00B9AFD
:1006400040F20C41C4F20101086890430860FFE7E2
:100650000E9880798007002809D5FFE70B9A40F2B1
:100660000441C4F2010108681043086008E00B9AD5
:1006700040F20441C4F20101086890430860FFE7BA
:100680000E988079C00748B1FFE70B9A40F200410D
:10069000C4F2010108681043086008E00B9A40F2B8
:1006A0000041C4F20101086890430860FFE7FFE7DA
:1006B000FFE70D9801300D9079E610B0704700000B
:1006C00082B00190ADF802108DF801209DF8010074
:1006D00028B1FFE7BDF802000199086105E0BDF807
:1006E0000200000401990861FFE702B070470000B2
:1006F00040F20410C2F200000068704740F20800A7
:10070000C2F20000027840F20411C2F2000108684F
:10071000104408607047000080B542F20001C4F246
:100720000201086840F010000860032000F096F80D
:100730000F2000F005F800F03BF8002080BD00001D
:1007400080B582B0009040F20400C2F20000006860
:1007500040F20801C2F200010A784FF47A71B1FB4D
:10076000F2F1B0FBF1F000F08FFD20B1FFE70120C6
:100770008DF8070018E000980F280DD8FFE70099C2
:100780004FF0FF30002200F04FF8009840F20C01CB
:10079000C2F20001086003E001208DF8070003E0C9
:1007A00000208DF80700FFE79DF8070002B080BD2C
:1007B00083B0FFE741F21800C4F20200016841F083
:1007C00001010160006800F0010002900298FFE75B
:1007D000FFE741F21C00C4F20200016841F08051C1
:1007E0000160006800F0805001900198FFE7FFE78A
:1007F0000421C4F2010108680090009820F0E06034
:100800000090009840F00070009000980860FFE7AA
:1008100003B0704780B582B08DF807009DF90700DE
:1008200001F096FD02B080BD80B586B08DF817004E
:10083000049103920020029001F0A2FD02909DF924
:100840001700019002980499039A01F05BFA01469F
:10085000019801F09DFD06B080BD000080B582B01A
:100860000190019801F0B6FD02B080BD7047000014
:1008700080B584B002900191029820B9FFE7012071
:100880008DF80F001BE1019842F20001C4F2020151
:10089000096801F00701884216D9FFE742F200001B
:1008A000C4F20200016821F00701019A11430160BE
:1008B000006800F007000199884204D0FFE701209A
:1008C0008DF80F00FBE0FFE7029800788007002812
:1008D0002AD5FFE7029800784007002809D5FFE7EE
:1008E00041F20401C4F20201086840F4E0600860CB
:1008F000FFE7029800780007002809D5FFE741F2DA
:100900000401C4F20201086840F460500860FFE787
:1009100041F20401C4F20201086820F0F000029ADA
:10092000926810430860FFE702980078C00700282B
:1009300060D0FFE70298406801280ED1FFE741F23E
:100940000000C4F2020000688003002804D4FFE71E
:1009500001208DF80F00B2E021E0029840680228E3
:100960000ED1FFE741F20000C4F2020000688001EE
:10097000002804D4FFE701208DF80F009FE00DE070
:1009800041F20000C4F2020000688007002804D48D
:10099000FFE701208DF80F0091E0FFE7FFE741F24C
:1009A0000401C4F20201086820F00300029A5268B0
:1009B00010430860FFF79CFE0090FFE741F204003F
:1009C000C4F20200006800F00C0002994968B0EB24
:1009D000810F0ED0FFE7FFF78BFE0099401A41F21E
:1009E0008931884204D3FFE703208DF80F0066E0C9
:1009F000E4E7FFE7019842F20001C4F2020109684E
:100A000001F00701884216D2FFE742F20000C4F26B
:100A10000200016821F00701019A1143016000689A
:100A200000F007000199884204D0FFE701208DF80B
:100A30000F0044E0FFE702980078400700280CD53B
:100A4000FFE741F20401C4F20201086820F4E0600B
:100A5000029AD26810430860FFE702980078000706
:100A600000280DD5FFE741F20401C4F20201086835
:100A700020F46050029A126940EAC2000860FFE761
:100A800000F052F841F20401C4F202010968C9B24F
:100A90000A0942F23C41C0F60001895CC84040F2BC
:100AA0000401C2F20001086040F20C00C2F2000032
:100AB0000068FFF745FE00208DF80F00FFE79DF866
:100AC0000F0004B080BD00004C21C4F2422101207F
:100AD0000860704740F20400C2F2000000687047EE
:100AE00080B5FFF7F7FF41F20401C4F20201096883
:100AF000C1F3022242F24C41C0F60001895CC840B9
:100B000080BD000080B5FFF7E5FF41F20401C4F2AB
:100B100002010968C1F3C22242F24C41C0F6000151
:100B2000895CC84080BD000086B00020059004901C
:100B300003900290019041F20400C4F202000068A8
:100B40000590059800F00C000146009100283FD068
:100B5000FFE70098042804D0FFE70098082806D093
:100B600037E041F20020C0F27A00019037E00598AA
:100B7000C0F3834142F25440C0F60000405C029052
:100B80009DF81600C007C0B1FFE741F20400C4F2AF
:100B900002000068C0F3404142F26440C0F6000029
:100BA000405C0490029841F20021C0F27A0148436F
:100BB0000499B0FBF1F0039007E0029840F60011B1
:100BC000C0F23D0148430390FFE70398019006E01F
:100BD000FFE741F20020C0F27A000190FFE70198A0
:100BE00006B0704780B541F20800C4F20200006808
:100BF0000006002809D5FFE7FFF738FE41F20A0199
:100C0000C4F2020180200870FFE780BD80B586B085
:100C10000490049820B9FFE701208DF817002EE317
:100C200004980078C007002800F0AE80FFE741F28A
:100C30000400C4F20200006800F00C00042813D085
:100C4000FFE741F20400C4F20200006800F00C006B
:100C500008281BD1FFE741F20400C4F2020000683B
:100C6000C003002812D5FFE741F20000C4F20200E1
:100C700000688003002808D5FFE70498406820B981
:100C8000FFE701208DF81700F9E27CE0FFE7049808
:100C90004068B0F5803F09D1FFE741F20001C4F29E
:100CA0000201086840F48030086032E0049840682F
:100CB00068B9FFE741F20001C4F20201086820F4BC
:100CC00080300860086820F48020086020E00498E4
:100CD0004068B0F5A02F0DD1FFE741F20001C4F24A
:100CE0000201086840F480200860086840F4803001
:100CF00008600CE041F20001C4F20201086820F42F
:100D000080300860086820F480200860FFE7FFE773
:100D1000FFE7FFE704984068D0B1FFE7FFF7E8FC82
:100D20000390FFE741F20000C4F202000068800374
:100D300000280CD4FFE7FFF7DBFC0399401A652875
:100D400004D3FFE703208DF8170098E2EAE719E0E3
:100D5000FFF7CEFC0390FFE741F20000C4F202006F
:100D60000068800300280CD5FFE7FFF7C1FC03995A
:100D7000401A652804D3FFE703208DF817007EE2B0
:100D8000EAE7FFE7FFE7FFE704980078800700281D
:100D900040F18D80FFE741F20400C4F202000068D8
:100DA00010F00C0F13D0FFE741F20400C4F2020070
:100DB000006800F00C00082829D1FFE741F2040088
:100DC000C4F202000068C003002820D4FFE741F20B
:100DD0000000C4F2020000688007002809D5FFE780
:100DE00004980069012804D0FFE701208DF817005E
:100DF00045E241F20001C4F20201086820F0F80067
:100E0000049A526940EAC2000860FFE74EE0049885
:100E1000006958B3FFE70021C4F2422101200860B5
:100E2000FFF766FC0390FFE741F20000C4F2020006
:100E30000068800700280CD4FFE7FFF759FC0399EE
:100E4000401A032804D3FFE703208DF8170016E2A9
:100E5000EAE741F20001C4F20201086820F0F8005C
:100E6000049A526940EAC20008601EE00021C4F200
:100E7000422100200860FFF73BFC0390FFE741F2AE
:100E80000000C4F202000068800700280CD5FFE7CC
:100E9000FFF72EFC0399401A032804D3FFE7032031
:100EA0008DF81700EBE1EAE7FFE7FFE7FFE70498BB
:100EB00000780007002848D5FFE70498806918B338
:100EC000FFE740F28041C4F2422101200860FFF7B1
:100ED0000FFC0390FFE741F22400C4F20200006817
:100EE000800700280CD4FFE7FFF702FC0399401AA3
:100EF000032804D3FFE703208DF81700BFE1EAE7DA
:100F0000012000F037FF1FE040F28041C4F242218F
:100F100000200860FFF7ECFB0390FFE741F224009C
:100F2000C4F202000068800700280CD5FFE7FFF735
:100F3000DFFB0399401A032804D3FFE703208DF851
:100F400017009CE1EAE7FFE7FFE704980078400715
:100F5000002840F1D880FFE700208DF8070041F21B
:100F60001C00C4F202000068C000002813D4FFE790
:100F7000FFE741F21C00C4F20200016841F0805119
:100F80000160006800F0805000900098FFE70120A9
:100F90008DF80700FFE747F20000C4F20000006888
:100FA000C005002822D4FFE747F20001C4F2000187
:100FB000086840F480700860FFF79AFB0390FFE731
:100FC00047F20000C4F200000068C00500280CD4FD
:100FD000FFE7FFF78DFB0399401A652804D3FFE76D
:100FE00003208DF817004AE1EAE7FFE7FFE70498DE
:100FF000C068012809D1FFE741F22001C4F20201D3
:10100000086840F00100086031E00498C06868B9E1
:10101000FFE741F22001C4F20201086820F001005C
:101020000860086820F0040008601FE00498C068A9
:1010300005280DD1FFE741F22001C4F20201086842
:1010400040F004000860086840F0010008600CE00F
:1010500041F22001C4F20201086820F0010008609A
:10106000086820F004000860FFE7FFE7FFE7FFE7FC
:101070000498C068E0B1FFE7FFF73AFB0390FFE791
:1010800041F22000C4F202000068800700280ED45C
:10109000FFE7FFF72DFB0399401A41F2893188429F
:1010A00004D3FFE703208DF81700E8E0E8E71BE032
:1010B000FFF71EFB0390FFE741F22000C4F202009D
:1010C0000068800700280ED5FFE7FFF711FB0399A2
:1010D000401A41F28931884204D3FFE703208DF89A
:1010E0001700CCE0E8E7FFE79DF80700012809D1E9
:1010F000FFE741F21C01C4F20201086820F08050B1
:101100000860FFE7FFE70498C069002800F0B3809B
:10111000FFE741F20400C4F20200006800F00C0096
:10112000082800F08280FFE70498C06902285CD19B
:10113000FFE76021C4F2422100200860FFF7D8FADF
:101140000390FFE741F20000C4F202000068800152
:1011500000280CD5FFE7FFF7CBFA0399401A0328C4
:1011600004D3FFE703208DF8170088E0EAE704982E
:10117000006AB0F5803F0CD1FFE741F20401C4F2F0
:101180000201086820F40030049A92681043086055
:10119000FFE741F20401C4F20201086820F4741070
:1011A000049B1A6A5B6A1A43104308606021C4F208
:1011B000422101200860FFF79BFA0390FFE741F20C
:1011C0000000C4F202000068800100280CD4FFE790
:1011D000FFF78EFA0399401A032804D3FFE7032090
:1011E0008DF817004BE0EAE71EE06021C4F24221CF
:1011F00000200860FFF77CFA0390FFE741F200004F
:10120000C4F202000068800100280CD5FFE7FFF758
:101210006FFA0399401A032804D3FFE703208DF8DF
:1012200017002CE0EAE7FFE724E00498C0690128F2
:1012300004D1FFE701208DF8170020E041F20400FF
:10124000C4F2020000680290029800F48030049911
:10125000096A884208D1FFE7029800F470100499E7
:10126000496A884204D0FFE701208DF8170006E0A4
:10127000FFE7FFE7FFE700208DF81700FFE79DF885
:10128000170006B080BD000080B582B001900198C3
:1012900000F086FE02B080BD81B0009001B07047C2
:1012A00081B0009001B0704785B003900291FFE7D4
:1012B000039890F83C00012804D1FFE702208DF844
:1012C00013005BE00399012081F83C00FFE7FFE792
:1012D0000399022081F83D0003980068406801905E
:1012E0000398006880680090019820F070000190D9
:1012F00002980168019808430190019803990968D0
:1013000048600398006842F60041C4F20101884237
:1013100018D0FFE703980068B0F1804F12D0FFE7C4
:101320000398006840F20041C4F20001884209D0ED
:10133000FFE70398006840F60001C4F2000188420C
:101340000ED1FFE7009820F08000009002984168DD
:101350000098084300900098039909688860FFE7A7
:101360000399012081F83D00FFE70399002081F8EF
:101370003C00FFE700208DF81300FFE79DF8130005
:1013800005B0704780B582B00090009820B9FFE7A3
:1013900001208DF807003FE0009890F83D0040B92B
:1013A000FFE70099002081F83C00009800F038F831
:1013B000FFE70099022081F83D00009951F8040BE5
:1013C00000F060FE0099012081F84600FFE70099D7
:1013D000012081F83E00009981F83F00009981F8D2
:1013E0004000009981F84100FFE7FFE700990120E4
:1013F00081F84200009981F84300009981F8440087
:10140000009981F84500FFE70099012081F83D002F
:1014100000208DF80700FFE79DF8070002B080BDAF
:1014200080B584B003900398006842F60041C4F28E
:101430000101884219D1FFE7FFE741F21800C4F229
:101440000200016841F400610160006800F400607E
:1014500002900298FFE71920019001210022FFF776
:10146000E3F90198FFF7D6F9FFE704B080BD00006B
:1014700083B00190019890F83D00012804D0FFE767
:1014800001208DF80B0047E00199022081F83D0012
:1014900001980168C86840F00100C86001980068C0
:1014A00042F60041C4F20101884218D0FFE70198DA
:1014B0000068B0F1804F12D0FFE70198006840F259
:1014C0000041C4F20001884209D0FFE7019800689A
:1014D00040F60001C4F20001884212D1FFE70198F2
:1014E0000068806800F0070000900098062807D088
:1014F000FFE701980168086840F001000860FFE715
:1015000006E001980168086840F001000860FFE704
:1015100000208DF80B00FFE79DF80B0003B070472B
:1015200080B586B00490039100208DF80B00FFE792
:10153000049890F83C00012804D1FFE702208DF8C0
:101540001700ABE00499012081F83C00FFE7FFE7BA
:101550000499022081F83D00049800688068019099
:10156000019820F077000190019820F47F400190CD
:101570000198049909688860039800680090002821
:1015800072D0FFE7009810286ED0FFE7009820285F
:101590006AD0FFE70098302866D0FFE7009840281F
:1015A00055D0FFE70098502837D0FFE70098602813
:1015B00040D0FFE7009870280BD0FFE70098B0F507
:1015C000805F05D0FFE70098B0F5005F16D052E0CD
:1015D00055E004980068039B5A689968DB6800F03E
:1015E000D5FD0498006880680190019840F077006C
:1015F0000190019804990968886040E004980068A7
:10160000039B5A689968DB6800F0C0FD0498016884
:10161000886840F48040886031E004980068039A4C
:101620005168D26800F0E2FD04980068502100F093
:10163000C7FD24E004980068039A5168D26800F05E
:10164000FDFD04980068602100F0BAFD17E00498E1
:101650000068039A5168D26800F0C8FD04980068D9
:10166000402100F0ADFD0AE0049800680399096884
:1016700000F0A6FD03E001208DF80B00FFE70499C0
:10168000012081F83D00FFE70499002081F83C002B
:10169000FFE79DF80B008DF81700FFE79DF8170096
:1016A00006B080BD81B0009001B0704780B584B0B5
:1016B000039003980068C06802900398006800696E
:1016C00001909DF804008007002824D5FFE79DF8CD
:1016D0000800800700281DD5FFE7039801686FF018
:1016E0000200086103990120087703980068806967
:1016F000800720B1FFE70398FFF7D4FF06E00398C7
:1017000000F0E2F8039800F0E3F8FFE70399002007
:101710000877FFE7FFE79DF804004007002825D57C
:10172000FFE79DF80800400700281ED5FFE7039853
:1017300001686FF00400086103990220087703989C
:101740000068806910F4407F04D0FFE70398FFF73A
:10175000A9FF06E0039800F0B7F8039800F0B8F886
:10176000FFE7039900200877FFE7FFE79DF80400F3
:101770000007002824D5FFE79DF80800000700288F
:101780001DD5FFE7039801686FF008000861039911
:101790000420087703980068C069800720B1FFE73C
:1017A0000398FFF77FFF06E0039800F08DF8039899
:1017B00000F08EF8FFE7039900200877FFE7FFE7C6
:1017C0009DF80400C006002825D5FFE79DF8080015
:1017D000C00600281ED5FFE7039801686FF01000CF
:1017E000086103990820087703980068C06910F41D
:1017F000407F04D0FFE70398FFF754FF06E003980B
:1018000000F062F8039800F063F8FFE70399002006
:101810000877FFE7FFE79DF80400C00778B1FFE70E
:101820009DF80800C00748B1FFE7039801686FF012
:1018300001000861039800F04FF8FFE7FFE79DF80B
:1018400004000006002810D5FFE79DF808000006F8
:10185000002809D5FFE7039801686FF08000086150
:101860000398FFF719FDFFE7FFE79DF80400400626
:10187000002810D5FFE79DF808004006002809D58C
:10188000FFE7039801686FF040000861039800F0DB
:1018900061F8FFE7FFE79DF804008006002810D5F7
:1018A000FFE79DF808008006002809D5FFE70398A8
:1018B00001686FF0200008610398FFF7F1FCFFE773
:1018C000FFE704B080BD000081B0009001B0704718
:1018D00081B0009001B0704780B582B0019001984E
:1018E000006842F60041C4F2010188422FD1FFE7AF
:1018F00040F20000C2F20000008800F05BFA40F203
:101900007000C2F200000188013101800088B0F54A
:101910007A7F1BDBFFE740F27001C2F2000100207A
:10192000088040F20000C2F200000188013101800D
:10193000008842F21071884207DBFFE740F20001A5
:10194000C2F2000100200880FFE7FFE7FFE702B0D6
:1019500080BD000081B0009001B0704780B582B0BA
:101960000090009820B9FFE701208DF8070040E0C3
:101970000098806908B1FFE700E0FFE7009890F861
:10198000410040B9FFE70099002081F8400000982D
:1019900000F034F8FFE70099242081F84100009816
:1019A0000168C86820F40050C860009800F070FC1E
:1019B00000980168086920F4904008610098016867
:1019C000486920F02A00486100980168C86840F41E
:1019D0000050C860009900204864009A202182F8D5
:1019E0004110009A82F84210009948638DF8070070
:1019F000FFE79DF8070002B080BD000080B58AB007
:101A000009900020089007900690059009980068BA
:101A100043F60001C4F20101884248D1FFE7FFE725
:101A200041F21800C4F20200016841F480410160F3
:101A3000006800F4804004900498FFE7FFE741F25B
:101A40001800C4F20200016841F00801016000685A
:101A500000F0080003900398FFE740200590022063
:101A600006900320089040F60040C4F20100009068
:101A700005A90191FEF794FC009801998022059236
:101A8000002206920792FEF78BFCFFE70421C4F2C6
:101A9000010108680290029840F0E060029002980C
:101AA00040F00400029002980860FFE7FFE70AB0E8
:101AB00080BD0000FFE7FEE780B594B000201390E2
:101AC000129011901090FFE741F21800C4F202004A
:101AD000016841F010010160006800F010000F90F3
:101AE0000F98FFE7FFE741F21800C4F20200016817
:101AF00041F020010160006800F020000E900E9877
:101B0000FFE7FFE741F21800C4F20200016841F06C
:101B100004010160006800F004000D900D98FFE7DB
:101B2000FFE741F21800C4F20200016841F0080129
:101B30000160006800F008000C900C98FFE740F688
:101B40000000C4F20100059048F28F31009100229C
:101B50000A92FEF7B5FD0A9A40F60040C4F2010071
:101B6000039045F620410491FEF7AAFD009A0598DE
:101B70000A99109201220292119212910221099166
:101B8000139110A90691FEF70BFC059806990A9A85
:101B9000402310930023C1F2110301931193129279
:101BA000FEF7FEFB019B039806990A9A42F2040C89
:101BB000CDF840C011931292FEF7F2FBDDF808C099
:101BC00003980699099A0A9BDDF810E0CDF840E0E9
:101BD000CDF844C012931392FEF7E2FB05980699E4
:101BE0000A9A4FF48063109311921292FEF7D8FB79
:101BF00009990A9A08200790FEF716FE0798FEF743
:101C000009FE09990A9A17200890FEF70DFE089818
:101C1000FEF700FE09990A9A28200B90FEF704FEB1
:101C20000B98FEF7F7FD14B080BD000080B588B0BA
:101C30000021009107910691059104910391029171
:101C400040F27400C2F20000019042F60042C4F279
:101C500001020260416081604FF6FF12C2600161C3
:101C600041618161FFF78EFB18B1FFE7FEF73CFB96
:101C7000FFE74FF48050049040F27400C2F200007D
:101C800004A9FFF74DFC18B1FFE7FEF72DFBFFE7B6
:101C900000200290039040F27400C2F2000002A9FA
:101CA000FFF702FB18B1FFE7FEF71EFBFFE708B0E6
:101CB00080BD000080B582B040F2BC00C2F20000DE
:101CC000019043F60001C4F2010101604FF4E131DB
:101CD000416000218160C16001610C22426181612B
:101CE000C161FFF73BFE18B1FFE7FEF7FDFAFFE722
:101CF00002B080BDFFE7FEE780B5FEF773FFFFE7A8
:101D0000FEE7000088B0079006910592079800F062
:101D1000070004900498C0F10700052803D3FFE7EB
:101D20000420019004E00498C0F107000190FFE74F
:101D30000198039004980430062803D8FFE7002098
:101D4000009003E0049803380090FFE700980290A9
:101D500006980399012202FA01F101390840029B19
:101D6000984005999A40013A1140084308B07047DD
:101D70007047000082B00190019840F20401C2F265
:101D800000010968C90844F6D352C1F26202A1FBFE
:101D90000221890948430090FFE700BFFFE7009850
:101DA000411E00910028F8D1FFE702B07047000003
:101DB0007047000080B588B0ADF81E000022019287
:101DC0008DF81D200692BDF81E0049F69A11C1F645
:101DD0009911A0FB01C303EB8303A0EB43008DF833
:101DE0001B00BDF81E00A0FB0130ADF81E00BDF8C1
:101DF0001E00A0FB01C303EB8303A0EB43008DF89F
:101E00001A00BDF81E00A0FB0130ADF81E00BDF8A1
:101E10001E00A0FB01C303EB8303A0EB43008DF87E
:101E20001900BDF81E00A0FB0130ADF81E00BDF882
:101E30001E00A0FB013101EB8101A0EB41008DF8F8
:101E4000180040F60000C4F2010003904FF4004176
:101E5000FEF736FC019A03984FF48071FEF730FCD0
:101E6000019A40F60040C4F2010002904FF4805104
:101E7000FEF726FC019A02984FF48041FEF720FC01
:101E8000039840F27201C2F2000104910A7806A997
:101E90008A5C42F26641C0F60001895C8DF81D1033
:101EA0009DF81D1001F001020121FEF709FC0398C5
:101EB0009DF81D10C1F340020221FEF701FC0398BA
:101EC0009DF81D10C1F380020421FEF7F9FB039871
:101ED0009DF81D10C1F3C0020821FEF7F1FB029826
:101EE0009DF81D10C1F300124FF40061FEF7E8FBEE
:101EF00002989DF81D10C1F340124FF48061FEF767
:101F0000DFFB03989DF81D10C1F380128021FEF7BE
:101F1000D7FB049800780146059103282CD8059931
:101F2000DFE801F0020C162040F60000C4F20100C8
:101F30004FF400410122FEF7C3FB1DE040F6000014
:101F4000C4F201004FF480710122FEF7B9FB13E0E7
:101F500040F60040C4F201004FF480510122FEF728
:101F6000AFFB09E040F60040C4F201004FF48041AD
:101F70000122FEF7A5FBFFE740F27200C2F200006B
:101F80000178013101700078042807DBFFE740F297
:101F90007201C2F2000100200870FFE708B080BDA6
:101FA00080B582B0009000980138B0F1807F03D3F3
:101FB000FFE70120019019E0009801384EF214016A
:101FC000CEF2000108604FF0FF300F2100F0E0F981
:101FD0004EF21801CEF20001002008604EF210020D
:101FE000CEF20002072111600190FFE7019802B0D4
:101FF00080BD000080B5FEF781FB80BD80B590B04C
:1020000006A800902821FEF7F5F800980021059118
:102010000491039102910191012206924FF48031C3
:1020200007914FF4003308930A9202220D920E9109
:102030004FF460110F91FEF7E9FD18B1FFE7FEF7CD
:1020400053F9FFE70F200190022102910020039035
:102050004FF480620492059001A8FEF709FC18B1C4
:10206000FFE7FEF741F9FFE7FEF72EFD10B080BD58
:102070007047000080B540F27400C2F20000FFF724
:1020800015FB80BD83B0029001910298006800901A
:10209000029842F60041C4F20101884215D0FFE7E0
:1020A0000298B0F1804F10D0FFE7029840F2004153
:1020B000C4F20001884208D0FFE7029840F6000110
:1020C000C4F2000188420AD1FFE7009820F07000B6
:1020D000009001984168009808430090FFE702983B
:1020E00042F60041C4F20101884215D0FFE7029890
:1020F000B0F1804F10D0FFE7029840F20041C4F2E7
:102100000001884208D0FFE7029840F60001C4F2BF
:10211000000188420AD1FFE7009820F44070009047
:102120000198C168009808430090FFE7009820F0EC
:10213000800001994969084300900098029908605D
:10214000019880680299C8620198006802998862C3
:10215000029842F60041C4F20101884205D1FFE72E
:102160000198006902990863FFE70299012048611C
:1021700002980069C00730B1FFE70299086920F0B2
:1021800001000861FFE703B07047000085B00490CC
:10219000039102920193049880680090009820F4C3
:1021A0007F40009003980299019A41EA022101437D
:1021B00000980843009000980499886005B0704723
:1021C00083B002900191029880680090009820F0FE
:1021D0007000009001980099084340F007000090BB
:1021E00000980299886003B07047000085B00490A1
:1021F000039102920498006A00900499086A20F002
:1022000001000862049880690190019820F0F000B4
:1022100001900299019840EA01100190009820F085
:102220000A000090039900980843009001980499CF
:10223000886100980499086205B0704785B00490E1
:10224000039102920498006A00900499086A20F0B1
:1022500010000862049880690190019820F4704091
:1022600001900299019840EA01300190009820F015
:10227000A00000900399009840EA01100090019896
:102280000499886100980499086205B070470000BD
:1022900080B584B0039003980068006920F4405032
:1022A000039A1168D26810430861039988680A6923
:1022B000496910430843029003980068C06841F2DE
:1022C0000C6188430299084303990968C860039820
:1022D0000068406920F44070039A116892691043C5
:1022E00048610398006843F60001C4F20101884286
:1022F00004D1FFE7FEF706FC019003E0FEF7F0FBD8
:102300000190FFE7019819214843039A1168526828
:102310009200B0FBF2FC48F21F52C5F2EB12ACFB8C
:1023200002304309642003FB10CC322000EB0C1078
:10233000A0FB0202F02000EA521000EB0310C2F3EF
:1023400043121044886004B080BD0000FFE7FEE740
:1023500081B08DF803009DF9030000280ED4FFE73B
:102360009DF9031001F01F02012090404A094EF22E
:102370000011CEF2000141F82200FFE701B07047E2
:102380004EF60C50CEF200000068C0F302207047F9
:1023900082B08DF8070000919DF9070000280AD44B
:1023A000FFE7009800019DF907104EF20042CEF2BF
:1023B000000288540BE0009800019DF8071001F01E
:1023C0000F014EF61452CEF200028854FFE702B01D
:1023D0007047000083B00290029800F00700009060
:1023E0004EF60C51CEF200010868019001984FF6AC
:1023F000FF02104001900198009A40EA022000225A
:10240000C0F2FA52104301900198086003B070477F
:1024100080B582B000200190FEF77EF9FFF7EEFD57
:10242000FFF74AFBFFF746FCFFF700FC40F27400A1
:10243000C2F20000FFF71CF8FFE7FEE70000000013
:102440000000000001020304060708090000000064
:102450000102030402030405060708090A0B0C0D18
:102460000E0F101001023F065B4F666D7D077F6FF8
:10247000777C395E79710000982400080000002004
:102480001000000050010008A824000810000020DF
:10249000F806000070010008D204000000127A0063
:0824A000010000001000000023
:04000005080000ED02
:00000001FF
